"use strict";(self.webpackChunknote_protocol=self.webpackChunknote_protocol||[]).push([[3497],{2188:(e,n,t)=>{t.r(n),t.d(n,{assets:()=>o,contentTitle:()=>r,default:()=>f,frontMatter:()=>a,metadata:()=>s,toc:()=>d});var i=t(6070),c=t(5296);const a={title:"",sidebar_position:4.1,sidebar_label:"Off-chain Smart Contracts"},r=void 0,s={id:"protocol/Token/4.1-OffchainContracts",title:"",description:"4.1 Off-chain Smart Contracts",source:"@site/docs/protocol/04-Token/4.1-OffchainContracts.md",sourceDirName:"protocol/04-Token",slug:"/protocol/Token/4.1-OffchainContracts",permalink:"/docs/protocol/Token/4.1-OffchainContracts",draft:!1,unlisted:!1,tags:[],version:"current",sidebarPosition:4.1,frontMatter:{title:"",sidebar_position:4.1,sidebar_label:"Off-chain Smart Contracts"},sidebar:"docsSidebar",previous:{title:"Token",permalink:"/docs/protocol/Token/4.0-Token"},next:{title:"Data Storage",permalink:"/docs/protocol/Token/4.2-Data"}},o={},d=[{value:"4.1 Off-chain Smart Contracts",id:"41-off-chain-smart-contracts",level:2},{value:"Contract Runtime Variables",id:"contract-runtime-variables",level:3},{value:"Runtime Variables Example",id:"runtime-variables-example",level:3}];function l(e){const n={admonition:"admonition",code:"code",h2:"h2",h3:"h3",li:"li",p:"p",pre:"pre",ul:"ul",...(0,c.R)(),...e.components};return(0,i.jsxs)(i.Fragment,{children:[(0,i.jsx)(n.h2,{id:"41-off-chain-smart-contracts",children:"4.1 Off-chain Smart Contracts"}),"\n",(0,i.jsx)(n.p,{children:"The smart contracts are written in Bitcoin's advanced smart contract language provided by sCrypt, ensuring that the index validator completes execution within a limited time. Additionally, it supports advanced use cases including Swaps, Oracles, and Zero-Knowledge Proofs."}),"\n",(0,i.jsx)(n.p,{children:"Here is a simple example of an off-chain contract:"}),"\n",(0,i.jsx)(n.pre,{children:(0,i.jsx)(n.code,{className:"language-typescript",children:"export class N20_Sample extends SmartContract {\n    @prop()\n    readonly tick: ByteString\n\n    @prop()\n    readonly max: bigint\n\n    @prop()\n    readonly lim: bigint\n\n    @prop()\n    readonly dec: bigint\n\n    constructor(tick: ByteString, max: bigint, lim: bigint, dec: bigint) {\n        super(...arguments)\n        this.tick = tick\n        this.max = max\n        this.lim = lim\n        this.dec = dec\n    }\n\n    @method()\n    public mint(tick: ByteString, amt: bigint) {\n        assert(tick == this.tick, 'Tick does not match')\n        assert(amt <= this.lim, 'Amount check failed')\n    }\n\n    @method()\n    public transfer(tick: ByteString, amt: bigint) {\n        assert(tick == this.tick, 'Tick does not match')\n        assert(amt <= this.lim, 'Amount check failed')\n    }\n}\n"})}),"\n",(0,i.jsxs)(n.p,{children:["The ",(0,i.jsx)(n.code,{children:"mint"})," and ",(0,i.jsx)(n.code,{children:"transfer"})," functions validate whether the two actions of N20 can be executed. Only after the operations pass contract validation will the indexer record changes in the account balances."]}),"\n",(0,i.jsx)(n.h3,{id:"contract-runtime-variables",children:"Contract Runtime Variables"}),"\n",(0,i.jsx)(n.p,{children:"During the runtime of the smart contract, the indexer provides constants and environmental variables as follows:"}),"\n",(0,i.jsxs)(n.ul,{children:["\n",(0,i.jsxs)(n.li,{children:[(0,i.jsx)(n.code,{children:"account"}),": ByteString, the initiator's ID (ScriptHash unlocking the UTXO)"]}),"\n",(0,i.jsxs)(n.li,{children:[(0,i.jsx)(n.code,{children:"inputSatoshis"}),": bigint, the satoshis of the current input (Satoshi amount unlocking the UTXO)"]}),"\n",(0,i.jsxs)(n.li,{children:[(0,i.jsx)(n.code,{children:"height"}),": bigint, current height; when the transaction is unconfirmed, it is the latest height plus 6"]}),"\n",(0,i.jsxs)(n.li,{children:[(0,i.jsx)(n.code,{children:"total"}),": bigint, minted amount of token"]}),"\n",(0,i.jsxs)(n.li,{children:[(0,i.jsx)(n.code,{children:"blockHash"}),": ByteString, the hash of the current block, empty string when unconfirmed"]}),"\n",(0,i.jsxs)(n.li,{children:[(0,i.jsx)(n.code,{children:"blockTime"}),": bigint, the timestamp of the current block, 0 when unconfirmed"]}),"\n",(0,i.jsxs)(n.li,{children:[(0,i.jsx)(n.code,{children:"indexInBlock"}),": bigint, the index of the current transaction in the block, 0 when unconfirmed"]}),"\n",(0,i.jsxs)(n.li,{children:[(0,i.jsx)(n.code,{children:"indexInChain"}),": bigint, the index of the current transaction in the chain, 0 when unconfirmed"]}),"\n",(0,i.jsxs)(n.li,{children:[(0,i.jsx)(n.code,{children:"tx"}),": ByteString, the HEX of the current transaction"]}),"\n",(0,i.jsxs)(n.li,{children:[(0,i.jsx)(n.code,{children:"txId"}),": ByteString, the ID of the current transaction"]}),"\n",(0,i.jsxs)(n.li,{children:[(0,i.jsx)(n.code,{children:"version"}),": bigint, the version number of the current transaction, typically 2"]}),"\n",(0,i.jsxs)(n.li,{children:[(0,i.jsx)(n.code,{children:"nLockTime"}),": bigint, the nLockTime of the current transaction"]}),"\n",(0,i.jsxs)(n.li,{children:[(0,i.jsx)(n.code,{children:"inputs"}),": array of current transaction inputs, each input includes:","\n",(0,i.jsxs)(n.ul,{children:["\n",(0,i.jsxs)(n.li,{children:[(0,i.jsx)(n.code,{children:"prevTxId"}),": ByteString, the ID of the previous transaction"]}),"\n",(0,i.jsxs)(n.li,{children:[(0,i.jsx)(n.code,{children:"outputIndex"}),": bigint, the output index of the previous transaction"]}),"\n",(0,i.jsxs)(n.li,{children:[(0,i.jsx)(n.code,{children:"sequenceNumber"}),": bigint, the unlocking sequenceNumber"]}),"\n"]}),"\n"]}),"\n",(0,i.jsxs)(n.li,{children:[(0,i.jsx)(n.code,{children:"outputs"}),": array of current transaction outputs, each output includes:","\n",(0,i.jsxs)(n.ul,{children:["\n",(0,i.jsxs)(n.li,{children:[(0,i.jsx)(n.code,{children:"script"}),": ByteString, the script of the output"]}),"\n",(0,i.jsxs)(n.li,{children:[(0,i.jsx)(n.code,{children:"satoshis"}),": bigint, the satoshis of the output"]}),"\n"]}),"\n"]}),"\n",(0,i.jsxs)(n.li,{children:[(0,i.jsx)(n.code,{children:"pre_*"}),": the previous transaction's variables"]}),"\n"]}),"\n",(0,i.jsx)(n.admonition,{type:"info",children:(0,i.jsx)(n.p,{children:"Don't use runtime variables in your parameters of methods."})}),"\n",(0,i.jsx)(n.admonition,{type:"info",children:(0,i.jsxs)(n.p,{children:["The ",(0,i.jsx)(n.code,{children:"pre_*"})," variables are only available in the ",(0,i.jsx)(n.code,{children:"transfer"})," function."]})}),"\n",(0,i.jsx)(n.h3,{id:"runtime-variables-example",children:"Runtime Variables Example"}),"\n",(0,i.jsx)(n.pre,{children:(0,i.jsx)(n.code,{className:"language-typescript",children:"note: { amt: 11100000000n, op: 'transfer', p: 'n20', tick: 'TUGOU#1' },\ndataMap: {\n  constructor: {\n    bitwork: '6e3230',\n    dec: 8,\n    lim: 500000000000n,\n    max: 2100000000000000n,\n    op: '6465706c6f79',\n    p: '6e3230',\n    sch: 'e392078ce2cee8584537752ff454dab98fb365f296230d7da42c5eb216670466',\n    start: 39755,\n    tick: '5455474f552331'\n  },\n  transfer: {\n    bitwork: '6e3230',\n    dec: 8,\n    lim: 500000000000n,\n    max: 2100000000000000n,\n    op: '7472616e73666572',\n    p: '6e3230',\n    sch: 'e392078ce2cee8584537752ff454dab98fb365f296230d7da42c5eb216670466',\n    start: 39755,\n    tick: '5455474f552331',\n    amt: [ 11100000000n, 488900000000n ],\n    height: 43834,\n    blockHash: '',\n    blockTime: 0n,\n    indexInBlock: 0n,\n    indexInChain: 0n,\n    tx: '020000000001022fcb8ebc4d95be2751a4caeeb9fc64bf67354fd46fbd3e40f4586f8fe1ef9ed60000000000ffffffff30c4e4010c6c53c91434909a05e59445b4fc564534191b7ce6166da1d3efdf290200000000ffffffff032202000000000000225120fb1397257ecba1b51739192853c08209235bb662482eaebf6556170442d7f0502202000000000000225120fb1397257ecba1b51739192853c08209235bb662482eaebf6556170442d7f050aa17270000000000160014bc5fa59b7108e0ec633e66233684bef4d4dbad48084047f11cbc35ccf124f865d0b13834084b8542f8479204f7efae625348821e16c875345ab25baf439f22e318d61c1845264dbf79403fd49ba1f6cb3dbb4908b8692d84a3616d74cf00000002959c8f00a26f70a87472616e73666572a170a36e3230a47469636ba75455474f552331000000002a044e4f54456d6d6d20da6c71b73fb5462258b16c60f30465fc5985fe9e63610e671f7c8bfddab3b115ac41c0da6c71b73fb5462258b16c60f30465fc5985fe9e63610e671f7c8bfddab3b1152a56124065fd50baecd89ca4204fbfaa0b66021d78891c9b7b9255a11b134114024730440220596a144cd39326443b8716e87670d33ec3e34e021de65f3f99c27d3f1158606302207b88444946d7ec914fd110905575d4c83d487e0e7ee3e7dae4086948ef2b8687012102da6c71b73fb5462258b16c60f30465fc5985fe9e63610e671f7c8bfddab3b11500000000',\n    inputs: [\n      {\n        prevTxId: 'd69eefe18f6f58f4403ebd6fd44f3567bf64fcb9eecaa45127be954dbc8ecb2f',\n        outputIndex: 0n,\n        sequenceNumber: 4294967295n\n      },\n      {\n        prevTxId: '29dfefd3a16d16e67c1b19344556fcb44594e5059a903414c9536c0c01e4c430',\n        outputIndex: 2n,\n        sequenceNumber: 4294967295n\n      }\n    ],\n    outputs: [\n      {\n        script: '5120fb1397257ecba1b51739192853c08209235bb662482eaebf6556170442d7f050',\n        satoshis: 546n\n      },\n      {\n        script: '5120fb1397257ecba1b51739192853c08209235bb662482eaebf6556170442d7f050',\n        satoshis: 546n\n      },\n      {\n        script: '0014bc5fa59b7108e0ec633e66233684bef4d4dbad48',\n        satoshis: 2561962n\n      }\n    ],\n    nLockTime: 0,\n    txId: '6f6b3849ac4a21f667abe7ae5d302e08ae6b1017211c2f226386573d0537c494',\n    version: 2,\n    account: '209e7f0e21d5314ff6d0370200565f1831a84b8c6666331dca00d8d16dbdcc24',\n    inputIndex: 0,\n    inputSatoshis: 546n,\n    prevTxId: 'd69eefe18f6f58f4403ebd6fd44f3567bf64fcb9eecaa45127be954dbc8ecb2f',\n    outputIndex: 0,\n    prev_p: 'n20',\n    prev_op: 'mint',\n    prev_amt: '500000000000',\n    prev_tick: 'TUGOU#1',\n    prev_nonce: '0',\n    prev_script: '5120fb1397257ecba1b51739192853c08209235bb662482eaebf6556170442d7f050',\n    prev_satoshis: 546n,\n    prev_height: 40093,\n    prev_blockHash: '000000005ed03c26f922e404078fed111a202c600789a82686b79383d9793852',\n    prev_blockTime: 1723955387,\n    prev_indexInBlock: 3,\n    prev_indexInChain: 40093000003,\n    prev_sender: '',\n    total: 500000000000n\n  }\n},\n"})})]})}function f(e={}){const{wrapper:n}={...(0,c.R)(),...e.components};return n?(0,i.jsx)(n,{...e,children:(0,i.jsx)(l,{...e})}):l(e)}},5296:(e,n,t)=>{t.d(n,{R:()=>r,x:()=>s});var i=t(758);const c={},a=i.createContext(c);function r(e){const n=i.useContext(a);return i.useMemo((function(){return"function"==typeof e?e(n):{...n,...e}}),[n,e])}function s(e){let n;return n=e.disableParentContext?"function"==typeof e.components?e.components(c):e.components||c:r(e.components),i.createElement(a.Provider,{value:n},e.children)}}}]);