"use strict";(self.webpackChunknote_protocol=self.webpackChunknote_protocol||[]).push([[3107],{7027:(n,e,c)=>{c.r(e),c.d(e,{assets:()=>a,contentTitle:()=>s,default:()=>b,frontMatter:()=>d,metadata:()=>r,toc:()=>o});var i=c(6070),t=c(5296);const d={title:"",sidebar_position:4.1,sidebar_label:"\u94fe\u4e0b\u667a\u80fd\u5408\u7ea6"},s=void 0,r={id:"protocol/Token/4.1-OffchainContracts",title:"",description:"4.1 \u94fe\u4e0b\u667a\u80fd\u5408\u7ea6",source:"@site/i18n/zh/docusaurus-plugin-content-docs/current/protocol/04-Token/4.1-OffchainContracts.md",sourceDirName:"protocol/04-Token",slug:"/protocol/Token/4.1-OffchainContracts",permalink:"/zh/docs/protocol/Token/4.1-OffchainContracts",draft:!1,unlisted:!1,tags:[],version:"current",sidebarPosition:4.1,frontMatter:{title:"",sidebar_position:4.1,sidebar_label:"\u94fe\u4e0b\u667a\u80fd\u5408\u7ea6"},sidebar:"docsSidebar",previous:{title:"\u4ee3\u5e01\uff08Token\uff09",permalink:"/zh/docs/protocol/Token/4.0-Token"},next:{title:"\u6570\u636e\u5b58\u50a8",permalink:"/zh/docs/protocol/Token/4.2-Data"}},a={},o=[{value:"4.1 \u94fe\u4e0b\u667a\u80fd\u5408\u7ea6",id:"41-\u94fe\u4e0b\u667a\u80fd\u5408\u7ea6",level:2},{value:"\u5408\u7ea6\u8fd0\u884c\u65f6\u53d8\u91cf",id:"\u5408\u7ea6\u8fd0\u884c\u65f6\u53d8\u91cf",level:3},{value:"\u8fd0\u884c\u65f6\u53d8\u91cf\u793a\u4f8b",id:"\u8fd0\u884c\u65f6\u53d8\u91cf\u793a\u4f8b",level:3}];function l(n){const e={admonition:"admonition",code:"code",h2:"h2",h3:"h3",li:"li",p:"p",pre:"pre",ul:"ul",...(0,t.R)(),...n.components};return(0,i.jsxs)(i.Fragment,{children:[(0,i.jsx)(e.h2,{id:"41-\u94fe\u4e0b\u667a\u80fd\u5408\u7ea6",children:"4.1 \u94fe\u4e0b\u667a\u80fd\u5408\u7ea6"}),"\n",(0,i.jsx)(e.p,{children:"\u667a\u80fd\u5408\u7ea6\u91c7\u7528sCrypt\u63d0\u4f9b\u7684\u6bd4\u7279\u5e01\u667a\u80fd\u5408\u7ea6\u9ad8\u7ea7\u8bed\u8a00\u7f16\u5199\uff0c\u4ee5\u786e\u4fdd\u7d22\u5f15\u9a8c\u8bc1\u5668\u5728\u6709\u9650\u65f6\u95f4\u5185\u5b8c\u6210\u6267\u884c\u3002\u6b64\u5916\uff0c\u652f\u6301\u5305\u62ecSwap\u3001Oracle\u548c\u96f6\u77e5\u8bc6\u8bc1\u660e\u5728\u5185\u7684\u9ad8\u7ea7\u7528\u4f8b\u3002"}),"\n",(0,i.jsx)(e.p,{children:"\u4ee5\u4e0b\u662f\u4e00\u4e2a\u7b80\u5355\u7684\u94fe\u4e0b\u5408\u7ea6\u793a\u4f8b\uff1a"}),"\n",(0,i.jsx)(e.pre,{children:(0,i.jsx)(e.code,{className:"language-typescript",children:"export class N20_Sample extends SmartContract {\n    @prop()\n    readonly tick: ByteString\n\n    @prop()\n    readonly max: bigint\n\n    @prop()\n    readonly lim: bigint\n\n    @prop()\n    readonly dec: bigint\n\n    constructor(tick: ByteString, max: bigint, lim: bigint, dec: bigint) {\n        super(...arguments)\n        this.tick = tick\n        this.max = max\n        this.lim = lim\n        this.dec = dec\n    }\n\n    @method()\n    public mint(tick: ByteString, amt: bigint) {\n        assert(tick == this.tick, 'Tick does not match')\n        assert(amt <= this.lim, 'Amount check failed')\n    }\n\n    @method()\n    public transfer(tick: ByteString, amt: bigint) {\n        assert(tick == this.tick, 'Tick does not match')\n        assert(amt <= this.lim, 'Amount check failed')\n    }\n}\n"})}),"\n",(0,i.jsxs)(e.p,{children:[(0,i.jsx)(e.code,{children:"mint"}),"\u548c",(0,i.jsx)(e.code,{children:"transfer"}),"\u51fd\u6570\u7528\u4e8e\u9a8c\u8bc1N20\u7684\u4e24\u9879\u64cd\u4f5c\u662f\u5426\u53ef\u4ee5\u6267\u884c\u3002\u53ea\u6709\u5f53\u64cd\u4f5c\u901a\u8fc7\u5408\u7ea6\u9a8c\u8bc1\u540e\uff0c\u7d22\u5f15\u5668\u624d\u4f1a\u8bb0\u5f55\u8d26\u6237\u4f59\u989d\u7684\u53d8\u5316\u3002"]}),"\n",(0,i.jsx)(e.h3,{id:"\u5408\u7ea6\u8fd0\u884c\u65f6\u53d8\u91cf",children:"\u5408\u7ea6\u8fd0\u884c\u65f6\u53d8\u91cf"}),"\n",(0,i.jsx)(e.p,{children:"\u5728\u667a\u80fd\u5408\u7ea6\u8fd0\u884c\u671f\u95f4,\u7d22\u5f15\u5668\u63d0\u4f9b\u4ee5\u4e0b\u5e38\u91cf\u548c\u73af\u5883\u53d8\u91cf:"}),"\n",(0,i.jsxs)(e.ul,{children:["\n",(0,i.jsxs)(e.li,{children:[(0,i.jsx)(e.code,{children:"account"}),": ByteString, \u53d1\u8d77\u4eba\u7684ID(\u89e3\u9501UTXO\u7684ScriptHash)"]}),"\n",(0,i.jsxs)(e.li,{children:[(0,i.jsx)(e.code,{children:"inputSatoshis"}),": bigint, \u5f53\u524d\u8f93\u5165\u7684\u806a\u6570(\u89e3\u9501UTXO\u7684Satoshi\u6570\u91cf)"]}),"\n",(0,i.jsxs)(e.li,{children:[(0,i.jsx)(e.code,{children:"height"}),": bigint, \u5f53\u524d\u9ad8\u5ea6;\u5f53\u4ea4\u6613\u672a\u786e\u8ba4\u65f6,\u4e3a\u6700\u65b0\u9ad8\u5ea6\u52a06"]}),"\n",(0,i.jsxs)(e.li,{children:[(0,i.jsx)(e.code,{children:"total"}),": bigint, \u5df2\u94f8\u9020\u7684\u4ee3\u5e01\u6570\u91cf"]}),"\n",(0,i.jsxs)(e.li,{children:[(0,i.jsx)(e.code,{children:"creator"}),": ByteString, \u521b\u5efa\u4ee3\u5e01\u7684\u8d26\u53f7\uff08\u8f93\u51fa\u811a\u672c\u7684\u811a\u672c\u54c8\u5e0c\uff09"]}),"\n",(0,i.jsxs)(e.li,{children:[(0,i.jsx)(e.code,{children:"blockHash"}),": ByteString, \u5f53\u524d\u533a\u5757\u7684\u54c8\u5e0c,\u672a\u786e\u8ba4\u65f6\u4e3a\u7a7a\u5b57\u7b26\u4e32"]}),"\n",(0,i.jsxs)(e.li,{children:[(0,i.jsx)(e.code,{children:"blockTime"}),": bigint, \u5f53\u524d\u533a\u5757\u7684\u65f6\u95f4\u6233,\u672a\u786e\u8ba4\u65f6\u4e3a0"]}),"\n",(0,i.jsxs)(e.li,{children:[(0,i.jsx)(e.code,{children:"indexInBlock"}),": bigint, \u5f53\u524d\u4ea4\u6613\u5728\u533a\u5757\u4e2d\u7684\u7d22\u5f15,\u672a\u786e\u8ba4\u65f6\u4e3a0"]}),"\n",(0,i.jsxs)(e.li,{children:[(0,i.jsx)(e.code,{children:"indexInChain"}),": bigint, \u5f53\u524d\u4ea4\u6613\u5728\u94fe\u4e2d\u7684\u7d22\u5f15,\u672a\u786e\u8ba4\u65f6\u4e3a0"]}),"\n",(0,i.jsxs)(e.li,{children:[(0,i.jsx)(e.code,{children:"tx"}),": ByteString, \u5f53\u524d\u4ea4\u6613\u7684\u5341\u516d\u8fdb\u5236\u8868\u793a"]}),"\n",(0,i.jsxs)(e.li,{children:[(0,i.jsx)(e.code,{children:"txId"}),": ByteString, \u5f53\u524d\u4ea4\u6613\u7684ID"]}),"\n",(0,i.jsxs)(e.li,{children:[(0,i.jsx)(e.code,{children:"version"}),": bigint, \u5f53\u524d\u4ea4\u6613\u7684\u7248\u672c\u53f7,\u901a\u5e38\u4e3a2"]}),"\n",(0,i.jsxs)(e.li,{children:[(0,i.jsx)(e.code,{children:"nLockTime"}),": bigint, \u5f53\u524d\u4ea4\u6613\u7684nLockTime"]}),"\n",(0,i.jsxs)(e.li,{children:[(0,i.jsx)(e.code,{children:"inputs"}),": \u5f53\u524d\u4ea4\u6613\u8f93\u5165\u7684\u6570\u7ec4,\u6bcf\u4e2a\u8f93\u5165\u5305\u62ec:","\n",(0,i.jsxs)(e.ul,{children:["\n",(0,i.jsxs)(e.li,{children:[(0,i.jsx)(e.code,{children:"prevTxId"}),": ByteString, \u524d\u4e00\u4e2a\u4ea4\u6613\u7684ID"]}),"\n",(0,i.jsxs)(e.li,{children:[(0,i.jsx)(e.code,{children:"outputIndex"}),": bigint, \u524d\u4e00\u4e2a\u4ea4\u6613\u7684\u8f93\u51fa\u7d22\u5f15"]}),"\n",(0,i.jsxs)(e.li,{children:[(0,i.jsx)(e.code,{children:"sequenceNumber"}),": bigint, \u89e3\u9501\u7684\u5e8f\u5217\u53f7"]}),"\n"]}),"\n"]}),"\n",(0,i.jsxs)(e.li,{children:[(0,i.jsx)(e.code,{children:"outputs"}),": \u5f53\u524d\u4ea4\u6613\u8f93\u51fa\u7684\u6570\u7ec4,\u6bcf\u4e2a\u8f93\u51fa\u5305\u62ec:","\n",(0,i.jsxs)(e.ul,{children:["\n",(0,i.jsxs)(e.li,{children:[(0,i.jsx)(e.code,{children:"script"}),": ByteString, \u8f93\u51fa\u7684\u811a\u672c"]}),"\n",(0,i.jsxs)(e.li,{children:[(0,i.jsx)(e.code,{children:"satoshis"}),": bigint, \u8f93\u51fa\u7684\u806a\u6570"]}),"\n"]}),"\n"]}),"\n",(0,i.jsxs)(e.li,{children:[(0,i.jsx)(e.code,{children:"pre_*"}),": \u524d\u4e00\u4e2a\u4ea4\u6613\u7684\u53d8\u91cf"]}),"\n"]}),"\n",(0,i.jsx)(e.admonition,{type:"caution",children:(0,i.jsx)(e.p,{children:"\u4e0d\u8981\u5728\u65b9\u6cd5\u7684\u53c2\u6570\u4e2d\u4f7f\u7528\u8fd0\u884c\u65f6\u53d8\u91cf\u3002"})}),"\n",(0,i.jsx)(e.admonition,{type:"info",children:(0,i.jsxs)(e.p,{children:[(0,i.jsx)(e.code,{children:"pre_*"}),"\u53d8\u91cf\u4ec5\u7528\u4e8e",(0,i.jsx)(e.code,{children:"transfer"}),"\u65b9\u6cd5\u3002"]})}),"\n",(0,i.jsx)(e.h3,{id:"\u8fd0\u884c\u65f6\u53d8\u91cf\u793a\u4f8b",children:"\u8fd0\u884c\u65f6\u53d8\u91cf\u793a\u4f8b"}),"\n",(0,i.jsx)(e.pre,{children:(0,i.jsx)(e.code,{className:"language-typescript",children:"note: { amt: 10000000000n, op: 'transfer', p: 'n20', tick: 'WUKONG#8' },\ndataMap: {\n  constructor: {\n    bitwork: '3230',\n    dec: 8,\n    desc: 'A sample token showcasing a mining contract with progressively increasing difficulty.',\n    lim: 900000000000n,\n    max: 81000000000000n,\n    op: '6465706c6f79',\n    p: '6e3230',\n    sch: 'd594416d99151d3bf962f53a792b1eb244646b984985c863fa8ee27bdfce2992',\n    start: 41305,\n    tick: '57554b4f4e472338'\n  },\n  transfer: {\n    bitwork: '3230',\n    dec: 8,\n    desc: 'A sample token showcasing a mining contract with progressively increasing difficulty.',\n    lim: 900000000000n,\n    max: 81000000000000n,\n    op: '7472616e73666572',\n    p: '6e3230',\n    sch: 'd594416d99151d3bf962f53a792b1eb244646b984985c863fa8ee27bdfce2992',\n    start: 41305,\n    tick: '57554b4f4e472338',\n    amt: [ 10000000000n, 5390000000000n ],\n    height: 44176,\n    blockHash: '',\n    blockTime: 0n,\n    indexInBlock: 0n,\n    indexInChain: 0n,\n    tx: '020000000001029ca52125503b229f19287eb5c1af3a713b0f07e00251a6c3cc4e4983dd8ad7e90000000000ffffffff8b154ed3ef950c5b1c24e8bd04cf17df35c8be2e52dbfe90c83221010783c3280200000000ffffffff032202000000000000225120fb1397257ecba1b51739192853c08209235bb662482eaebf6556170442d7f0502202000000000000225120fb1397257ecba1b51739192853c08209235bb662482eaebf6556170442d7f050542a270000000000160014bc5fa59b7108e0ec633e66233684bef4d4dbad4808401c715b2d877412f895eb20c88c65b90288843a56426cf49031343994c4f56c050e0657d059de04c6fa9149553fbe55d65d8a9c50f750f2adee6d4ad2cc4f7fdc2e84a3616d74cf00000002540be400a26f70a87472616e73666572a170a36e3230a47469636ba857554b4f4e472338000000002a044e4f54456d6d6d20da6c71b73fb5462258b16c60f30465fc5985fe9e63610e671f7c8bfddab3b115ac41c0da6c71b73fb5462258b16c60f30465fc5985fe9e63610e671f7c8bfddab3b1152a56124065fd50baecd89ca4204fbfaa0b66021d78891c9b7b9255a11b1341140248304502210093786529225604a185a4bf893c13e576b1f7cee338d5968ae41c1bdc7e523782022068259b0f910fa7c53eae6cfde0e798593110527289dda17b36eab75631ce7abe012102da6c71b73fb5462258b16c60f30465fc5985fe9e63610e671f7c8bfddab3b11500000000',\n    inputs: [\n      {\n        prevTxId: 'e9d78add83494eccc3a65102e0070f3b713aafc1b57e28199f223b502521a59c',\n        outputIndex: 0n,\n        sequenceNumber: 4294967295n\n      },\n      {\n        prevTxId: '28c38307012132c890fedb522ebec835df17cf04bde8241c5b0c95efd34e158b',\n        outputIndex: 2n,\n        sequenceNumber: 4294967295n\n      }\n    ],\n    outputs: [\n      {\n        script: '5120fb1397257ecba1b51739192853c08209235bb662482eaebf6556170442d7f050',\n        satoshis: 546n\n      },\n      {\n        script: '5120fb1397257ecba1b51739192853c08209235bb662482eaebf6556170442d7f050',\n        satoshis: 546n\n      },\n      {\n        script: '0014bc5fa59b7108e0ec633e66233684bef4d4dbad48',\n        satoshis: 2566740n\n      }\n    ],\n    nLockTime: 0,\n    txId: '88e0ba59cd2b8b7f795b81c06f94e961a2eaa14359c231318d9cb23ff17a0b94',\n    version: 2,\n    account: '209e7f0e21d5314ff6d0370200565f1831a84b8c6666331dca00d8d16dbdcc24',\n    inputIndex: 0,\n    inputSatoshis: 546n,\n    prevTxId: 'e9d78add83494eccc3a65102e0070f3b713aafc1b57e28199f223b502521a59c',\n    outputIndex: 0,\n    prev_amt: [ 5400000000000n ],\n    prev_op: '7472616e73666572',\n    prev_p: '6e3230',\n    prev_tick: '57554b4f4e472338',\n    prev_script: '5120fb1397257ecba1b51739192853c08209235bb662482eaebf6556170442d7f050',\n    prev_satoshis: 546n,\n    prev_height: 44132,\n    prev_blockHash: '0000000000000018483c2904d32ba0d8bd292063ef713d14f5ea5ccc02e10ce7',\n    prev_blockTime: 1725938902,\n    prev_indexInBlock: 52,\n    prev_indexInChain: 44132000052,\n    prev_sender: '209e7f0e21d5314ff6d0370200565f1831a84b8c6666331dca00d8d16dbdcc24',\n    total: 72900000000000n,\n    creator: '6d96a0c6127ef53b161678a8426056c19526a36d1790c72b7f9b118b64e9d4f5'\n  }\n}\n"})})]})}function b(n={}){const{wrapper:e}={...(0,t.R)(),...n.components};return e?(0,i.jsx)(e,{...n,children:(0,i.jsx)(l,{...n})}):l(n)}},5296:(n,e,c)=>{c.d(e,{R:()=>s,x:()=>r});var i=c(758);const t={},d=i.createContext(t);function s(n){const e=i.useContext(d);return i.useMemo((function(){return"function"==typeof n?n(e):{...e,...n}}),[e,n])}function r(n){let e;return e=n.disableParentContext?"function"==typeof n.components?n.components(t):n.components||t:s(n.components),i.createElement(d.Provider,{value:e},n.children)}}}]);